:100000000C9493010C94A5010C94A5010C94A22FBF
:100010000C944E2C0C94A5010C94A5010C94A501F4
:100020000C94A5010C94A5010C94A5010C949C2C96
:100030000C94A5010C94A5010C94A5010C94A501A8
:100040000C94862C0C94A5010C94BC2E0C94782F47
:100050000C94A5010C94A5010C94A5010C94A50188
:100060000C94A5010C94A501084AD73B3BCE016E28
:1000700084BCBFFDC12F3D6C74319ABD56833DDAFF
:100080003D00C77F11BED9E4BB4C3E916BAAAABE0E
:10009000000000803F05A84CCDB2D44EB93836A937
:1000A000020C50B9918688083CA6AAAA2ABE000074
:1000B00000803F000D0A4772626C20312E316C7354
:1000C000205B27242720666F722068656C705D0DA9
:1000D0000A00244E005B4F50543A005B5645523A9A
:1000E000312E316C732E32303230303131303A00B3
:1000F0005B544C4F3A005B4739323A0033300032A0
:1001000038005B4700204700204D00204600205467
:100110000033382E005B47433A47005B484C503A67
:10012000242420242320244720244920244E202432
:10013000783D76616C20244E783D6C696E65202494
:100140004A3D6C696E652024534C50202443202482
:1001500058202448207E2021203F206374726C2D7B
:10016000785D0D0A00414C41524D3A007C413A0005
:100170007C4F763A007C57434F3A007C506E3A00F1
:100180007C463A007C42663A007C57506F733A00D6
:100190007C4D506F733A00536C65657000446F6F0F
:1001A000723A00436865636B00416C61726D004890
:1001B0006F6D65004A6F6700486F6C643A00527556
:1001C0006E0049646C65000D0A005B5052423A00B3
:1001D0006572726F723A00CFF7FB42CFF7FB423F76
:1001E0005585430020EE450020EE4500206E450079
:1001F00055574A0055574A0055574A000048C30012
:100200000048C3000048C30A0000FF000AD7233C8F
:100210006F12033B00007A44000000000100000060
:1002200000C8410000FA43FA000000803F6F6B7085
:100230000D0A006F6B0D0A00536C656570696E677F
:1002400000526573746F72696E67207370696E64B3
:100250006C6500526573746F72696E6720646566C1
:1002600061756C74730050676D20456E640043685F
:1002700065636B204C696D69747300436865636BDB
:1002800020446F6F720044697361626C656400455D
:100290006E61626C65640043617574696F6E3A20CB
:1002A000556E6C6F636B656400272448277C272498
:1002B000582720746F20756E6C6F636B00526573E6
:1002C000657420746F20636F6E74696E7565005B72
:1002D0004D53473A0000000000240027002A000088
:1002E000000000250028002B00040404040404047A
:1002F00004020202020202030303030303010204D5
:100300000810204080010204081020010204081097
:1003100020000000080002010000030407000000A4
:1003200000000000000011241FBECFEFD8E0DEBFA8
:10033000CDBF27E0A0E0B1E001C01D92AF30B20711
:10034000E1F70E94D12F0C94333A0C940000E4E2C0
:10035000F3E02491E0E1F3E09491ECEFF2E0E4913A
:10036000EE23C9F0222339F0233001F1A8F4213023
:1003700019F1223029F1F0E0EE0FFF1FE152FD4F9D
:10038000A591B4912FB7F894EC91811126C0909566
:100390009E239C932FBF08952730A9F02830C9F0E1
:1003A000243049F7209180002F7D03C020918000E8
:1003B0002F7720938000DFCF24B52F7724BDDBCFAC
:1003C00024B52F7DFBCF2091B0002F772093B00074
:1003D000D2CF2091B0002F7DF9CF9E2BDACFE0E174
:1003E000F3E02491ECEFF2E08491882399F090E01F
:1003F000880F991FFC01EB52FD4FA591B491FC01B0
:10040000E152FD4F859194918FB7F894EC91E22BD6
:10041000EC938FBF08958F929F92AF92BF92CF922D
:10042000DF92EF92FF920F931F93CF93DF937C01A4
:100430006B01DC01EC91F0E0E154F94F8081EF01B8
:100440008D3229F52296818101E0912CF0E010E0B7
:1004500020E030E0A9015E01E0EDE80FEA3018F598
:10046000FF5FF930E0F491101150A5E0B0E00E9478
:100470000C3A9B01AC01220F331F441F551F2E0F56
:10048000311D411D511D2196D5018C91E4CF8B3238
:1004900019F0219600E0D9CF22968181FBCF9110EF
:1004A000F2CF1F5FF0CFEE3F29F4911003C09924E3
:1004B0009394E9CFFF23F9F0CA01B9010E940B37E9
:1004C0004B015C0120E030E0A9010E945936811106
:1004D0002BC0002309F445C0B7FAB094B7F8B09424
:1004E000F60180829182A282B382CF5BD640C15056
:1004F000F701C083F1E08F2FDF91CF911F910F9112
:10050000FF90EF90DF90CF90BF90AF909F908F9033
:1005100008952AE037ED43E25CE3C501B4010E948F
:10052000BB384B015C011E5F1F3F9CF31F3F59F41A
:100530002DEC3CEC4CEC5DE3C501B4010E94BB38F2
:100540004B015C01C6CF112321F220E030E040E2F4
:1005500051E4C501B4010E94BB384B015C0111504C
:10056000F2CFD6018D929D92AD92BC921397BDCFE2
:100570001092DD050E94EF0181E090E00C94A7014C
:100580002FB7F8949091C205892B8093C2052FBF95
:1005900008952FB7F8949091C105892B8093C105D8
:1005A0002FBF08952FB7F8949091C005892B8093A1
:1005B000C0052FBF08959FB7F8948093BF059FBFD4
:1005C00008959FB7F8942091BE058095822380936B
:1005D000BE059FBF08952FB7F8949091BE05892B53
:1005E0008093BE052FBF0895AF92BF92CF92DF9246
:1005F000EF92FF920F931F93CF93DF93EC0101E1F2
:1006000016E05C018CE0A80EB11CC990D990E9906D
:10061000F99020E030E0A901C701B6010E947B38C3
:100620001816DCF0F80121913191419151918F011F
:10063000C701B6010E94593687FD0FC0CA15DB05F8
:1006400021F780E0DF91CF911F910F91FF90EF9004
:10065000DF90CF90BF90AF90089581E0F3CF8F925D
:100660009F92AF92BF92CF92DF92EF92FF920F9341
:100670001F93CF93DF93EB012DEEE22E25E0F22EB8
:100680008C016B018CE0C80ED11C69917991899124
:100690009991F70181909190A190B1907F010E9472
:1006A0000D37A50194010E946336F801619371939F
:1006B000819391938F01CC15DD0539F7DF91CF91AF
:1006C0001F910F91FF90EF90DF90CF90BF90AF9070
:1006D0009F908F90089596B1892F837229F0892F6A
:1006E0008095817091FF82600895CF93DF93C091D0
:1006F000BC05D091BD052097C9F08091920581601D
:10070000809392056091A8057091A9058091AA0532
:100710009091AB059B01AC010E94BB386A8B7B8B2F
:100720008C8B9D8B1092BD051092BC05DF91CF91F3
:10073000089590911E06492F80911F06282F90FF43
:1007400011C094E080FF10C080E241FD986021FD5F
:10075000806442FD906122FD806890930C0280933A
:100760000D02089590E0EECF80E0EFCF8091320649
:1007700082FF13C0289A80910C0280931D02809101
:100780001D068250990B880F819580931C028091E1
:100790006F00826080936F0008952898ECCF2C98AA
:1007A00008959091DF0591110AC09091330690FD54
:1007B00006C0811105C00E94CF031092EB05089579
:1007C000803119F42D982C9AF8CF2D9AFCCF249AC9
:1007D000259A0C94CF03E0911D0191E09E0F99366C
:1007E00009F490E020918701291761F0F0E0E25EC2
:1007F000FE4F808390931D018091C10080628093A1
:10080000C10004C02091BE0524FFECCF0895CF9312
:10081000DF93CFEBD6E08991811103C0DF91CF91B7
:1008200008950E94EB03F7CF1092C3059091320612
:1008300097FD03C094E09093C305882331F0809125
:10084000C30594E089278093C30508958F929F92F2
:10085000AF92BF92CF92DF92EF92FF920F931F93CE
:10086000CF93DF93CDB7DEB72D970FB6F894DEBFE9
:100870000FBECDBF6B017C01042F20E030E0A90149
:100880000E94593687FF07C08DE20E94EB03F7FAFA
:10089000F094F7F8F094102F123008F054C000FFD5
:1008A0000AC020E030E040E251E4C701B6010E94F6
:1008B000BB386B017C0120E030E040E05FE3C70122
:1008C000B6010E9464350E94D53610E03AE0832ECE
:1008D000912CA12CB12CE12FF0E06115710581055F
:1008E0009105E9F581E090E08C0F9D1FE80FF91F5D
:1008F00080E3101708F445C0101309C0E1E0F0E0F0
:10090000EC0FFD1FE10FF11D80E380831F5FEE24DC
:10091000E394F12CEC0EFD1EE10EF11C111134C01C
:100920002D960FB6F894DEBF0FBECDBFDF91CF91ED
:100930001F910F91FF90EF90DF90CF90BF90AF90FD
:100940009F908F90089520E030E048EC52E4C7017A
:10095000B6010E94BB386B017C0112509DCFEE2482
:10096000E394F12CEC0EFD1EEE0EFF1EA50194018A
:100970000E94E439605DF7016083B901CA011F5F1D
:10098000AACF1F5F8193B5CF101303C08EE20E94E0
:10099000EB03F70182917F010E94EB031150BECF60
:1009A0002091320640E020FF07C02BE832E441E20C
:1009B0005DE30E94BB3841E00C942604209132068E
:1009C00043E020FF07C02BE832E441E25DE30E94F0
:1009D000BB3844E00C9426040F931F93CF938C01F3
:1009E000C0E0F80161917191819191918F010E9414
:1009F000DE04C23019F08CE20E94EB03CF5FC330FB
:100A000081F7CF911F910F910895CF93DF93843693
:100A100058F06AE00E94C439C0E3C90F6AE00E943E
:100A2000C439D0E3D90F04C0C0E0D0E08A30B0F7B9
:100A3000805D0E94EB03DD2319F08D2F0E94EB03F4
:100A4000CC2329F08C2FDF91CF910C94EB03DF9115
:100A5000CF910895CF93DF93EC01FE01849121960D
:100A6000811103C0DF91CF9108950E94EB03F5CF70
:100A700087EC91E00C942A05CF93C82F80ED91E08C
:100A80000E942A058C2F0E940505CF910C943805F1
:100A9000882321F0883231F00C943C0583E392E006
:100AA0000C942A058DE292E0FBCFCF92DF92EF9279
:100AB000FF92CF93DF93D82F6A017B01C22F84E28C
:100AC0000E94EB038D2F0E9405058DE30E94EB032E
:100AD0004C2FC701B6010E942604DF91CF91FF90F1
:100AE000EF90DF90CF900C943805CF93DF93D82F01
:100AF000C62F84E20E94EB038D2F0E9405058DE333
:100B00000E94EB038C2F0E940505DF91CF910C947E
:100B10003805EF92FF920F931F93CF93DF9360916D
:100B20001D0670E080E00E9475056091200670E06F
:100B300081E00E94750560911E0670E082E00E94CF
:100B4000750560911F0670E083E00E947505609155
:100B5000320662FB662760F970E084E00E9475054A
:100B60006091320666FB662760F970E085E00E94BE
:100B7000750580913206082E000C990B692F661FAF
:100B80006627661F70E086E00E9475056091210669
:100B900070E08AE00E94750540912206509123067C
:100BA000609124067091250623E08BE00E94550594
:100BB00040912606509127066091280670912906DB
:100BC00023E08CE00E94550560913206617070E070
:100BD0008DE00E9475056091320665FB662760F91D
:100BE00070E084E10E9475056091320663FB662720
:100BF00060F970E085E10E947505609132066295AA
:100C0000617070E086E10E9475056091340670E0C5
:100C100087E10E9475054091350650913606609136
:100C200037067091380623E088E10E94550540910F
:100C3000390650913A0660913B0670913C0623E0DC
:100C400089E10E94550560913D0670913E068AE15A
:100C50000E94750540913F06509140066091410603
:100C60007091420623E08BE10E94550540912A06CF
:100C700050912B0660912C0670912D0620E08EE19C
:100C80000E94550540912E0650912F066091300626
:100C90007091310620E08FE10E94550570E060E020
:100CA00080E20E94750560913306617070E088E211
:100CB0000E94750584E6F82E10E0CDEED5E000E048
:100CC000E02EEF0C123011F1133069F11130C9F040
:100CD000488159816A817B8123E08E2D0E945505D0
:100CE0000F5F2496033061F78AE0F80E1F5F8CE8EF
:100CF000F812E3CFDF91CF911F910F91FF90EF900A
:100D000008954C855D856E857F85E6CF20E030E0D7
:100D100041E655E4688D798D8A8D9B8D0E946336FE
:100D2000AB01BC01D9CF4CA15DA16EA17FA17058D0
:100D3000D3CF8DE50E94EB030C943805CF93DF935E
:100D4000CDB7DEB72C970FB6F894DEBF0FBECDBF80
:100D50008AEC91E00E942A0560ED75E0CE010196D3
:100D60000E942F03CE0101960E94EC048AE30E94A8
:100D7000EB038091E3050E9405050E9499062C96DD
:100D80000FB6F894DEBF0FBECDBFDF91CF910895AF
:100D9000E1E0F1E0A4ECB5E04D915D916D917C91C5
:100DA0001397408351836283738314964D915D91B1
:100DB0006D917C911797448355836683778318964A
:100DC0008D919D910D90BC91A02D80879187A287D8
:100DD000B3870895BF92CF92DF92EF92FF920F9365
:100DE0001F93CF93DF937C01FC0102A513A5D4A52B
:100DF000C5A5818980FF33C06091E60570E090E071
:100E000080E00E940D372AE037ED43E25CE30E9468
:100E1000BB389B01AC01B8018D2F9C2F0E94BB38C1
:100E20008B01D82FC92F20E030E040E85FE3B80104
:100E30008D2F9C2F0E947B38181624F000E010E0C4
:100E4000D0E8CFE3B8018D2F9C2FDF91CF911F9178
:100E50000F91FF90EF90DF90CF90BF90089582FDAB
:100E600017C06091E50570E090E080E00E940D37CA
:100E70002AE037ED43E25CE30E94BB389B01AC0102
:100E8000B8018D2F9C2F0E94BB388B01D82FC92F02
:100E9000F701B6A0C7A0D0A4F1A498014D2F5C2FF4
:100EA0006B2D7C2D8D2D9F2D0E94593687FFBBCF3A
:100EB0000B2D1C2DDD2DCF2DB6CF809133029091BF
:100EC0001405981739F02EE2829FC00111248C5C22
:100ED0009D4F089590E080E008950E945D07892B62
:100EE00019F082E00C94EB0208952F923F924F92FA
:100EF0005F926F927F928F929F92AF92BF92CF92AA
:100F0000DF92EF92FF920F931F93CF93DF9300D066
:100F100000D0CDB7DEB700911405002309F486C0D8
:100F2000098339813150398310913202131709F442
:100F300066C0C32ED12CEEE23E9FC00111249C015D
:100F40002C5C3D4F7901F90176888788908CA18CC3
:100F5000628D738D848D958D9B01AC010E946435EB
:100F6000F701268D378D40A151A10E94BB38B62EC6
:100F7000E72EF82E9B83262F372F482F592F672DCA
:100F8000782D892D9A2D0E94593687FF03C0B72CE2
:100F90007401AB828EE28C9DF0018D9DF00D1124C9
:100FA000EC5CFD4F8B2D9E2DAF2DBB81828B938BE7
:100FB000A48BB58BF9818F2FF11101C080E1FF2443
:100FC000FA94F80E309033021F1133C0131102C08F
:100FD0000E947503EEE21E9FC00111248C5C9D4FA0
:100FE0009A83898333243394310EF0E13F1201C098
:100FF000312C8EE2282E031185C0109332020F90FF
:101000000F900F900F90DF91CF911F910F91FF9054
:10101000EF90DF90CF90BF90AF909F908F907F9098
:101020006F905F904F903F902F90089520E129831B
:1010300078CF29818EE2289F900111242C5C3D4FAE
:101040003C832B832EE2E22E8F2C912CFE9CC00140
:101050001124FC01EC5CFD4FFA83E983F11002C01E
:1010600090E1F92EFA94F31002C00E947503E89CF7
:10107000C001E99C900D11249C012C5C3D4F69013D
:10108000F90146885788608C718CA30192016289AE
:101090007389848995890E945936882339F1F6012C
:1010A000628D738D848D958D9B01AC010E9464359A
:1010B000F601268D378D40A151A10E94BB38EB81EE
:1010C000FC8122893389448955890E9464354B010A
:1010D0005C01AC019B01C301B2010E947B38F601A7
:1010E00018165CF4828A938AA48AB58A29813A8187
:1010F0003C832B831F11A8CF6DCF428A538A648A09
:10110000758AF4CFC32CD12C329CC00111249C01D0
:101110002C5C3D4F7901E981FA81428853886488CB
:101120007588F90182889388A488B588A5019401FF
:10113000C301B2010E94593687FF26C0E981FA81B6
:10114000628D738D848D958D9B01AC010E946435F9
:10115000E981FA81268D378D40A151A10E94BB38CB
:10116000A30192010E9464352B013C01AC019B015B
:10117000C501B4010E947B38181634F4F701428A85
:10118000538A648A758A132D2C9CF0012D9CF00DD6
:101190001124EC5CFD4F26893789408D518D628981
:1011A0007389848995890E945936811101C0132D54
:1011B0003394F0E13F1201C0312CFA82E9821BCF57
:1011C0006F927F928F929F92AF92BF92CF92DF9257
:1011D000EF92FF920F931F93CF93DF93EB018C015C
:1011E0005B018CE0A80EB11C89E9682E96E7792E88
:1011F00026E9822E3EE7932EC990D990E990F99086
:1012000020E030E0A901C701B6010E9459368823C9
:10121000B9F0A7019601F801608171818281938103
:101220000E9463366B017C01E894F7F89301A401F6
:10123000C701B6010E947B38181614F03601470129
:101240000C5F1F4FCA15DB05B9F6B301C401DF916E
:10125000CF911F910F91FF90EF90DF90CF90BF90B3
:10126000AF909F908F907F906F90089593B18091F1
:10127000320686FF0BC09E7059F091FB882780F9DB
:1012800092FD8260987029F0846008959095F3CF64
:1012900080E00895EBE6F0E08081817F8083E8E6DE
:1012A000F0E080818E7F8083089584B1817F84B94E
:1012B00085B18E6085B98091320683FF0BC0809125
:1012C0006B008E6080936B008091680081608093DA
:1012D000680008950C944A0964EC75E08CE596E08A
:1012E0000C942F03F894F999FECF92BD81BD81E053
:1012F0008FBB20B5862F8227082E000C990B50E05B
:1013000086239523892B49F084E16F3F11F060BD5E
:1013100084E08FBBF99A789408952617E1F360BDB5
:1013200084E2F7CF9F92AF92BF92CF92DF92EF927B
:10133000FF920F931F93CF93DF935C018A017B0190
:10134000E40EF51EEB01912C6C01C61AD70ACE01F2
:101350008C0D9D1D21E0911007C0292D990C330B98
:10136000232F221F2227221F6991962E920E0E9460
:101370007209CE15DF0559F7692DC501800F911F40
:10138000DF91CF911F910F91FF90EF90DF90CF9061
:10139000BF90AF909F900C9472096AE090E080E05B
:1013A0000E94720946E550E06DEE75E081E090E044
:1013B0000C949209F999FECF92BD81BD81E08FBB5B
:1013C00080B508959F92AF92BF92CF92DF92EF9235
:1013D000FF920F931F93CF93DF935B018A017C01F0
:1013E000E40EF51EEC01912C6B01C81AD90AC60156
:1013F0008C0F9D1F0E94DA0921E0911007C0292D52
:10140000990C330B232F221F2227221F982E920E76
:101410008993CE15DF0559F7C501800F911F0E94F2
:10142000DA0921E030E0891511F030E020E0C9014F
:10143000DF91CF911F910F91FF90EF90DF90CF90B0
:10144000BF90AF909F9008959091DF05911105C0D6
:1014500086FF04C0439A1092EB0508954398FBCF92
:10146000E1E0F1E08CE1DF011D928A95E9F710924D
:1014700033021092140581E0809300011092320231
:1014800008954F925F926F927F92AF92BF92CF92E8
:10149000DF92EF92FF920F931F93CF93DF93EC01B4
:1014A0005C012CE0A20EB11C8C01C12CD12C760168
:1014B000F80141905190619071908F0120E030E0EF
:1014C000A901C301B2010E945936882371F0A3011A
:1014D0009201C301B2010E94BB389B01AC01C7015C
:1014E000B6010E9464356B017C010A151B0501F7EA
:1014F000C701B6010E945A396B017C01AC019B0106
:1015000060E070E080E89FE30E9463362B013C01BD
:1015100069917991899199915E01F4E0AF1AB108CE
:10152000A30192010E94BB38F5016083718382831D
:101530009383C017D10761F7C701B601DF91CF913F
:101540001F910F91FF90EF90DF90CF90BF90AF90E1
:101550007F906F905F904F9008952F923F924F929F
:101560005F926F927F928F929F92AF92BF92CF9233
:10157000DF92EF92FF920F931F93CF93DF93CDB73C
:10158000DEB7C654D1090FB6F894DEBF0FBECDBF8B
:101590002091E2052AA320FDE1C624702BAB3091F7
:1015A000140539AF4EE2349FC0011124DC01AC5C5C
:1015B000BD4F2396BFAFAEAF2397BAA1B270BCABFD
:1015C000409133024AAF4F5F4D8F403109F458C705
:1015D0004BAF5EE2ABAD5A9FC0011124FC01EA5B48
:1015E000FD4F2596FFAFEEAF2597909115058091A1
:1015F0001605981709F4B2C68091BC059091BD05F7
:10160000892B09F079C0EBA9EE2309F40FC22396C8
:101610002EAD3FAD23973093BD052093BC0540917F
:10162000BC055091BD055A874987452B09F496C6DC
:101630001091920510FF01C2109292051092A4051C
:101640001092A5051092A6051092A705A985BA8546
:101650005A962D913D914D915C915D9729833A83E6
:101660004B835C8360E070E080E09FE30E94633620
:101670006D837E838F839887E985FA85468C578CA6
:1016800060A071A082889388A488B588FCA9FF23F4
:1016900009F4A1C222E02093A305A50194010E94B0
:1016A000BB389B01AC01C301B2010E9463356B01E1
:1016B0007C0120E030E0A9010E94593687FF7AC200
:1016C00029813A814B815C81CA01B9010E9464354C
:1016D000A30192010E94BB389B01AC01C501B4017A
:1016E0000E9463350E945A396093B0057093B1052A
:1016F0008093B2059093B30580913B05482F50E04D
:101700005A8B498B86E0849FF001859FF00D112450
:10171000E95EFA4F809191058483A091BC05B09158
:10172000BD05BE87AD875E96BC91BFA3ED85FE85E6
:10173000F78DF8A7AD85BE859096BC91B9A7ED85CC
:10174000FE85F1A1FAA720919F053091A005409157
:10175000A1055091A2056FA178A58B2F9F2F0E9404
:1017600063356DAB7EAB8FAB98AF20E030E0A90165
:101770000E94593687FF04C01DAA1EAA1FAA18AED0
:101780002091AC052D8B3091AD053E8B4091AE057F
:101790004F8B5091AF05588F8091B4058E8F9091EB
:1017A000B5059F8FA091B605A8A3B091B705B9A3C1
:1017B000E091B805EBA7F091B905FCA72091BA0517
:1017C0002DA73091BB053EA73090A8052090A90514
:1017D0004091AA0527964FAF27975091AB052696C3
:1017E0005FAF26978091A30589879091A4059FA755
:1017F000A091A505A8ABB091A605B9ABE091A7054E
:10180000EAABF091B005FDAF2091B1052EAF30915C
:10181000B2053FAF4091B30521964FAF21972BA55D
:101820003CA54DA55EA56E8D7F8D88A199A10E94D6
:101830005936811159C352E05CAF9FA1998FA8A579
:10184000AA8FB9A5BB8FEAA5EC8F8EE3C82E83ECD7
:10185000D82E8EE2E82E89E3F82E412C512C32014D
:10186000A70196012BA33CA34DA35EA3598551303C
:1018700009F4F7C3AD85BE85513008F46FC353300A
:1018800009F025C45A962D913D914D915C915D973B
:10189000C701B6010E94BB384B015C012D893E890E
:1018A0004F89588D632D722D27968FAD27972696D9
:1018B0009FAD26970E9463359B01AC01C501B40121
:1018C0000E947B3887FD1AC32E8D3F8D48A159A1F8
:1018D0006FA178A589A59AA50E9463359B01AC01EB
:1018E0000E9464356B017C012D893E894F89588D9A
:1018F000632D722D27968FAD279726969FAD26973D
:101900000E9464359B01AC01C701B6010E94633699
:101910006B017C013D882E88BF892796BFAF279732
:10192000E88D2696EFAF26970E8D1F8DF8A1F983CF
:1019300029A12D8331E03987A7019601C301B201A6
:101940000E9464352B013C012BA13CA14DA15EA15D
:101950000E94593687FF3CC4A30192016BA17CA170
:101960008DA19EA10E9463356B017C019801498184
:101970005D816FA578A989A99AA90E94593687FD2A
:10198000B6C2832D922D2796AFAD27972696BFAD71
:1019900026978093A8059093A905A093AA05B093D4
:1019A000AB0539853093A30520919B0530919C05AB
:1019B00040919D0550919E05B80189819D810E94AD
:1019C000BB3869877A878B879C870E9442366B0178
:1019D0007C0160919705709198058091990590918F
:1019E0009A050E9442364B015C01A70196010E94B4
:1019F00063350E94DC366D877E878F87988BA6E0E3
:101A000089899A89A89FF001A99FF00D1124E95EA8
:101A1000FA4F2D853E8531832083232B09F008C49E
:101A20005CA9552309F404C48AA195C40E945D07EA
:101A30009093BD058093BC05F2CD809191058F5F99
:101A4000853009F480E080939105482F50E091E1C2
:101A5000949FF001959FF00D1124E45CFA4FA98545
:101A6000BA8550969C915097908BE1E18E9FC00172
:101A7000112430E020E0CD90DD90ED90FD90FC0150
:101A8000E20FF31FE45CFA4F63E0CC0CDD1CEE1CAC
:101A9000FF1C6A95D1F7C082D182E282F3822C5F6B
:101AA0003F4F2C30310539F7A985BA851C966D91C9
:101AB0007D918D919C911F97B1E1B49F9001B59F4D
:101AC000300D1124F901E45CFA4F6B017C0123E035
:101AD000CC0CDD1CEE1CFF1C2A95D1F7C486D586E4
:101AE000E686F7860E940B376093970570939805FA
:101AF0008093990590939A05E985FA85268D378D0F
:101B000040A151A10E9463369B01AC0120939B052B
:101B100030939C0540939D0550939E0560E070E0D6
:101B200080EA9FE30E94633660939F057093A0054F
:101B30008093A1059093A2051092930510929405AD
:101B40001092950510929605FCA9F11102C013FFA1
:101B500020C06091B0057091B1058091B20590915F
:101B6000B3056093A8057093A9058093AA05909387
:101B7000AB059B01AC010E94BB38A985BA85529682
:101B80006D937D938D939C935597177F109392053A
:101B900055CDE985FA8562897389848995890E9482
:101BA0005A396093A8057093A9058093AA0590936C
:101BB000AB0544CDC092A405D092A505E092A60540
:101BC000F092A7051092B0051092B1051092B205DF
:101BD0001092B30591CD1092A3054092B405509296
:101BE000B5056092B6057092B7053BA9332309F499
:101BF0006AC01092B0051092B1051092B205109211
:101C0000B305C12CD12C760189859A850E94EA06FC
:101C10006D877E878F87988B9B01AC010E94BB38B4
:101C200069877A878B879C87A50194010E94593622
:101C300087FF8BC029853A854B855C85C501B4013A
:101C40000E9463352D813E814F8158850E94BB38AB
:101C50009B01AC01C301B2010E9463356093B405DE
:101C60007093B5058093B6059093B70520E030E0FA
:101C7000A9010E94593618160CF441C0B2E0B09385
:101C8000A30529813A814B815C81CA01B9010E9477
:101C90006435A30192010E94BB389B01AC01C501D0
:101CA000B4010E9463350E945A396093B005709365
:101CB000B1058093B2059093B30580919205886039
:101CC0008093920519CD49AD5BADC12CD12C760125
:101CD000451741F02596AEADBFAD2597CD90DD906F
:101CE000ED90FC90C701B6010E945A396093B0058F
:101CF0007093B1058093B2059093B30585CFA7018A
:101D0000960169857A858B859C850E9463352D8136
:101D10003E814F8158850E94BB386093B80570930F
:101D2000B9058093BA059093BB052D853E854F85F7
:101D300058892093AC053093AD054093AE05509380
:101D4000AF0533E03093A305D7CCA7019601C501B9
:101D5000B4010E9463352D813E814F8158850E94D8
:101D6000BB38A30192010E94643520E030E040E0DE
:101D70005FE30E94BB38698B7A8B8B8B9C8B20E056
:101D800030E0A9010E947B3818160CF094C0A30122
:101D9000920169897A898B899C890E94593687FFCB
:101DA00088C0A701960169857A858B859C850E94EC
:101DB00063352D813E814F8158850E94BB389B0140
:101DC000AC012093B8053093B9054093BA05509300
:101DD000BB0569897A898B899C890E947B38181692
:101DE000BCF58D859E85AF85B8898093AC059093B1
:101DF000AD05A093AE05B093AF05A501940169852B
:101E00007A858B859C850E945936811104C091E0AA
:101E10009093A30571CCA501940169857A858B8582
:101E20009C850E9463352D813E814F8158850E949B
:101E3000BB389B01AC01C301B2010E9463356093C2
:101E4000B4057093B5058093B6059093B70554CC4F
:101E500029893A894B895C892093B4053093B5056B
:101E60004093B6055093B7052093B8053093B90554
:101E70004093BA055093BB0529813A814B815C811F
:101E8000CA01B9010E94643529893A894B895C8964
:101E90000E94BB38A70196010E9464350E945A39FE
:101EA0006093AC057093AD058093AE059093AF053C
:101EB00023CC32E047CF8091B0059091B105A0913D
:101EC000B205B091B3051092B4051092B505109209
:101ED000B6051092B7058093AC059093AD05A0931D
:101EE000AE05B093AF0508CC81E08CAFA6CC098FCE
:101EF0001A8F39813B8F4D814C8FB8CC20E030E078
:101F000040E05FE3C501B4010E94BB389B01AC0116
:101F1000632D722D27968FAD279726969FAD269716
:101F20000E946335A70196010E94BB389B01AC015A
:101F3000698D7A8D8B8D9C8D0E9463358B01898391
:101F40009D83A5019401632D722D27968FAD279750
:101F500026969FAD26970E9463357AC05A962D919A
:101F60003D914D915C915D97C701B6010E94BB38D0
:101F70004B015C0120E030E040E05FE30E94BB38B1
:101F8000232D322D27964FAD279726965FAD2697A6
:101F90000E946435A70196010E94BB389B01AC01E9
:101FA000698D7A8D8B8D9C8D0E9463358B01898321
:101FB0009D839B01AC016E8D7F8D88A199A10E94AC
:101FC0007B381816CCF52E8D3F8D48A159A16FA1F5
:101FD00078A589A59AA50E9463359B01AC010E9452
:101FE00064356B017C012D893E894F89588D632DA5
:101FF000722D27968FAD279726969FAD26970E9424
:1020000064359B01AC01C701B6010E9463366B01C8
:102010007C01BCADB9873D882E88EF892796EFAF4C
:102020002797F88D2696FFAF26970E8D1F8D28A136
:10203000298339A13D8380CCA5019401632D722DA4
:1020400027968FAD279726969FAD26970E946435D9
:10205000362E272E27968FAF279726969FAF269747
:102060006BCC2D893E894F89588DC701B6010E94DE
:10207000BB389B01AC01698D7A8D8B8D9C8D0E9444
:1020800063358B0189839D832BA53CA54DA55EA55A
:102090000E94593687FF50CC2BA53CA54DA55EA5C7
:1020A000698D7A8D8B8D9C8D0E9463352D893E893B
:1020B0004F89588D0E9463366B017C010BA51CA5CE
:1020C0004DA549835EA55D8382E0898735CC5A960C
:1020D0002D913D914D915C915D97C701B6010E9494
:1020E000BB384B015C01AC019B01632D722D27961F
:1020F0008FAD279726969FAD26970E947B3818169E
:1021000064F520E030E040E05FE3C501B4010E94E7
:10211000BB389B01AC01632D722D27968FAD27979D
:1021200026969FAD26970E946335A70196010E94CF
:10213000BB389B01AC01698D7A8D8B8D9C8D0E9483
:1021400063358B0189839D832FA538A949A95AA995
:102150000E947B3818160CF4F4CE2FA538A949A993
:102160005AA9698D7A8D8B8D9C8D0E9463359B0158
:10217000AC010E9464356B017C012DAD3EAD4FADCD
:1021800021965FAD2197632D722D27968FAD2797EE
:1021900026969FAD26970E9464359B01AC01C7012E
:1021A000B6010E9463366B017C013DAC2EACBFAD25
:1021B0002796BFAF27972196EFAD21972696EFAFD1
:1021C00026970FA518A9F9A9F9832AA92D83B4CBBD
:1021D0002DA93EA94FA958ADB80189819D810E94C2
:1021E0007B3818168CF42EE333EC4EE259E36BA1E6
:1021F0007CA18DA19EA10E9464356BA37CA38DA3BD
:102200009EA3A3019201AECB832D922D2796AFAD55
:1022100027972696BFAD26978093A8059093A9058A
:10222000A093AA05B093AB0549854093A305BCCB09
:102230002091930530919405409195055091960514
:10224000C301B2010E9464352B013C0129853A8506
:102250004B855C85C501B4010E9463359B01AC01CF
:10226000C301B2010E9463364B015C0120EC31EEE8
:1022700044E65EE40E94BB380E9442360E94DC368F
:10228000603DA7E07A078105910508F081C046E02E
:1022900029893A89429FF001439FF00D1124E95E9C
:1022A000FA4F158246E029893A89429FF001439FFF
:1022B000F00D1124E95EFA4F738362838091160555
:1022C00080933B058F5F863009F4BBC08093160571
:1022D000E091BC05F091BD05C801A981BD81868F43
:1022E000978FA0A3B1A3C0929705D0929805E092D2
:1022F0009905F0929A0529853A854B855C85C70139
:10230000B6010E946335A50194010E94BB38609319
:10231000930570939405809395059093960520916D
:10232000A4053091A5054091A6055091A705B801D7
:1023300089819D810E945936811157C920E030E082
:10234000A901B80189819D810E947B3818160CF083
:102350007BC08091E20581608093E205CA5BDF4F1C
:102360000FB6F894DEBF0FBECDBFDF91CF911F91A6
:102370000F91FF90EF90DF90CF90BF90AF909F9024
:102380008F907F906F905F904F903F902F90089527
:10239000603A5FE0750781059105A0F526E0A989FF
:1023A000BA892A9FF0012B9FF00D1124E95EFA4FA4
:1023B00031E0358346E029893A89429FF001439F05
:1023C000F00D1124E95EFA4F2581022E04C0969586
:1023D0008795779567950A94D2F7AD85BE8502C03B
:1023E000AA0FBB1F2A95E2F7B183A083611571057F
:1023F000B1E08B07910508F455CF8FEF9FEF9383E2
:1024000082835CCF60344FE174078105910560F4ED
:1024100026E0A989BA892A9FF0012B9FF00D11248B
:10242000E95EFA4F32E0C5CFA6E049895A89A49FF8
:10243000F001A59FF00D1124E95EFA4FB3E0B583DA
:10244000B9CF1092160544CF9BA99111EDCA1092F5
:10245000BD051092BC05A9ADBAADAB1709F4C5C84E
:10246000ED8DE03109F41D8E80913202FAADF81342
:1024700003C02D8D209332023D8D30933302A0C8CE
:102480001BAEA7C880916F008D7F80936F008091F5
:102490008100887F81608093810010920E0280917C
:1024A00020069091DE058F3FA1F42091BF052111F8
:1024B00010C0903881F490E0019778F481E0909119
:1024C000320692FF02C091E08927882369F0289A9A
:1024D0000895943081F780E0F2CFEFE9FFE0319783
:1024E000F1F700C00000E8CF28980895CF93DF935C
:1024F0000E944212E1E9F5E08BE2DF011D928A952C
:10250000E9F7CFE0D2E083E2FE0111928A95E9F784
:102510001092BD051092BC051092150510923B0556
:1025200081E08093160510920E020E94990380911B
:102530000D028F878BB1837E90910C02892B8BB912
:102540008BB18F7190910D02892B8BB9DF91CF9157
:1025500008958091BE0584FD1CC080E10E94EB02BD
:102560000E94CF0343989091DE05892F8C7221F44D
:102570008091E205867069F0943049F48091BF053E
:10258000811103C086E00E94DB020C94421283E0BA
:10259000FACF08952F923F924F925F926F927F925F
:1025A0008F929F92AF92BF92CF92DF92EF92FF9263
:1025B0000F931F93CF93DF93CDB7DEB7AE970FB6D0
:1025C000F894DEBF0FBECDBF1091BF05112341F1BE
:1025D000123089F48FEC92E00E942A058DEB92E094
:1025E0000E942A050E94990680E10E94E1028091E2
:1025F000BE0584FFFCCF81E08093DE0585E691E097
:102600000E942A05812F0E9405050E94380585EF4A
:1026100091E0019741F58FB7F8941092BF058FBFF5
:102620001091BE05112309F4D9C214FF23C081E023
:102630008093DF05AE960FB6F894DEBF0FBECDBF18
:10264000DF91CF911F910F91FF90EF90DF90CF908E
:10265000BF90AF909F908F907F906F905F904F90C2
:102660003F902F900895EFE9FFE03197F1F700C018
:102670000000CFCF10FFBFC08CE0E4ECF5E0DE013E
:10268000599601900D928A95E1F7BE01675E7F4FE2
:10269000CE010D960E942F038CE30E94EB038091E4
:1026A000DE05883009F425C108F000C1813009F445
:1026B00029C108F419C1823009F427C1843009F412
:1026C0001EC180912106F82FF1709F2E80FF32C12C
:1026D0008091EC05882309F42DC180E991E00E94E6
:1026E0002A05CE010D960E94EC048091210681FFFF
:1026F0001DC084E891E00E942A0590911405809104
:102700003302981708F465C1815F891B0E94050593
:102710008CE20E94EB0380910A0290910B029817C1
:1027200008F459C18058891B0E94050580E891E092
:102730000E942A058091DE058C7709F44EC16091D4
:10274000A8057091A9058091AA059091AB050E94FA
:10275000D0040E943609E82E0E946B03F82E06B1C1
:1027600004708091C30508278E2D8F29802B59F185
:102770008BE791E00E942A05002319F080E50E9472
:10278000EB03EE2079F0E0FE03C088E50E94EB0346
:10279000E1FE03C089E50E94EB03E2FE03C08AE587
:1027A0000E94EB03FF2079F0F0FE03C082E50E9457
:1027B000EB03F1FE03C088E40E94EB03F2FE03C0CA
:1027C00083E50E94EB038091EC05882309F409C19D
:1027D00081508093EC050091EB05002309F41AC1A8
:1027E00001500093EB058EE30E94EB030E94380535
:1027F00081E00E94E102812F887E09F49FC18091CF
:10280000DE05982F937009F088C18872A9F0809135
:10281000E005807C89F40E94750382E08093E205E4
:102820008091DE05803241F480E217FD0CC080917A
:10283000E00580688093E0058091DE05811103C08A
:1028400091E09093E00516FF07C085FD05C08091DB
:10285000E00580648093E00513FF09C00E94CF0368
:102860008091DE05807E19F480E18093DE0515FFFE
:1028700054C18FEC92E00E942A058BE792E00E94FF
:102880002A050E9499068091E00587FD41C190913B
:10289000DE05903409F039C183FF04C0837E826075
:1028A0008093E00580E48093DE0532C1803221F11F
:1028B00098F4803109F005CF8091E00587FD1CC0B8
:1028C00088EB91E00E942A058091E00580FF2EC0F0
:1028D00080E30E94EB03F5CE8034D1F0803809F01C
:1028E000F0CE87E991E002C082EC91E00E942A05D7
:1028F000E8CE8EEB91E0FACF84EB91E0F7CF8FEA50
:1029000091E0F4CF89EA91E0F1CF83EA91E0EECF54
:102910008DE991E00E942A058091E00583FF02C0C5
:1029200083E3D7CF82FF04C085FFD2CF81E3D1CF2D
:1029300082E3CFCF4090800650908106609082065F
:1029400070908306F8E6AF2EF6E0BF2E9E012F5F53
:102950003F4F6901CE010D967C0100E0F5016191C8
:102960007191819191915F012085318542855385D7
:102970000E946435F60161937193819391936F0185
:10298000023041F4A30192010E94643569877A877D
:102990008B879C87911012C0F6013497208131817A
:1029A00042815381F70160817181828193810E940C
:1029B0006335F70160837183828393830F5FF4E053
:1029C000EF0EF11C033051F6911087CE89E891E0AB
:1029D00086CE81509ACE8150A6CE60E070E0CB01C9
:1029E000B6CE8091DE058C7799F08DE18093EC0571
:1029F0008091EB05811103C081E08093EB0585E7B1
:102A000091E00E942A05CE0101960E94EC04E3CEDB
:102A100089E0ECCF8091DE058C7709F446C083E134
:102A20008093EB0580E791E00E942A058091E505FF
:102A30000E9405058CE20E94EB038091E6050E944E
:102A400005058CE20E94EB038091E7050E940505D5
:102A50008CE20E94EB036091E8057091E90590E03B
:102A600080E0611571058105910509F580E30E94FB
:102A7000EB032C9B45C02D9B45C052E0F52E439B9C
:102A800032C200E48CE691E00E942A05FF2031F07A
:102A9000F1E083E5FF1283E40E94EB03002309F4D5
:102AA000A2CE86E40E94EB039ECE89E0B9CFE12C52
:102AB0006E0125E2C20ED11CEAE04E2E512C612C93
:102AC000712C5601AE0CB11CA30192010E94E43995
:102AD000F5016083B901CA01E394611571058105AF
:102AE000910579F7EC0CFD2CF11CCE14DF0409F4F0
:102AF000C0CFF70182917F01805D0E94EB03F5CF8B
:102B0000F12CBDCFFF24F394BACF903809F0CACE90
:102B10008091E00580628093E00517FF0CC08091F2
:102B2000DE05813029F48091E00585608093E00521
:102B300080E88093DE0588EE0E94E10211FF28C044
:102B4000812F887611F58091DE05803441F48091E3
:102B5000E00585FD04C084FF24C11092DE0580914C
:102B6000DE05882309F423C184FF0FC09091E0059E
:102B700090FF0BC0803109F01AC18091EA058823CB
:102B800009F415C188608093EA0582E00E94E102A1
:102B900012FF24C09091E0058091DE05807D09F44C
:102BA0001FC18091E10581111BC197FD1BC10E94CE
:102BB000750380913302809332020E9475078091E1
:102BC000E20581FF05C09091E00591609093E005DA
:102BD000897F8093E20584E00E94E1029091C00524
:102BE000992309F44CC08FB7F8941092C0058FBF99
:102BF0004091E505842F90FD84E691FD865F92FD6E
:102C00008A5093FD8F5F94FD8150893C08F088ECD9
:102C10008A3008F48AE03091E605232F95FD24E6FA
:102C200096FD22E397FD29E1481302C0231739F1ED
:102C30008093E5052093E6051092EB057090330232
:102C400060901405172D89E9282E96E7392E26E97C
:102C5000422E3EE7532E4EE2842E1611DEC0C101F5
:102C6000D2018093190190931A01A0931B01B09394
:102C70001C010E947503709232020E947507109128
:102C8000C105112309F445C08FB7F8941092C1050E
:102C90008FBF9091E705892F10FD84E611FD865FB7
:102CA00012FD8A5013FD8F5F14FD8150893C08F09E
:102CB00088EC8A3008F48AE0981761F08093E70581
:102CC0008091DE058111FFC080914C060E94D103E6
:102CD0001092EB0515FF0BC08091DE05803139F4B1
:102CE0008091EA058111F5C082E08093EA05107CAD
:102CF00081F08091DE05882311F0887351F01091E6
:102D00004B0616FFEAC01F7B812F0E94240A1093F6
:102D10004B062091C205222351F18FB7F8941092EF
:102D2000C2058FBF4091E8055091E905CA0120FF17
:102D300002C084E690E021FD0A9622FD0A9723FD59
:102D4000019624FD0197893EF3E09F0710F088EE7D
:102D500093E08A30910510F48AE090E04817590713
:102D600031F09093E9058093E8051092EB0580918E
:102D70008801882371F08FB7F894109288018FBF73
:102D80008091330680FDABC08160809333060E9442
:102D9000CF038091DE058C7F09F44CCC0E94AD0AF4
:102DA00049CC82FFDCCE88608093E005D8CE1092BB
:102DB000E2050E945D07892B71F08091E00586FD98
:102DC0000AC01092E00588E08093DE050E94AD0AFB
:102DD0000E94B603DACE1092E0051092DE05D5CE41
:102DE00097FF0AC01092E2050E94300A0E947612F4
:102DF0000E946C090E94C8068091E00585FF08C00A
:102E00008F7781608093E00580E48093DE05E3CED8
:102E10001092E0051092DE05DECEA12EB12C189D99
:102E2000C00111248C5C9D4F0E94EA06962EC72E8D
:102E3000D82E092F9101A2010E947B388A9C700133
:102E40008B9CF00C112497012C5C3D4F79011816D6
:102E50008CF59101A201B101C2010E94BB38F701BA
:102E6000668B778B808F918F8A9CC0018B9C900D95
:102E700011249C012C5C3D4F7901F90122A033A063
:102E800044A055A0A201910166897789808D918D1A
:102E90000E947B3818162CF4F701268A378A408E58
:102EA000518E1F5F103109F410E0292C3C2C4D2C61
:102EB000502ED3CE292D3C2D4D2D502F692D7C2DFC
:102EC0008D2D902FCACF8091E20588608093E20516
:102ED000FFCE80FF0CCF846008CF106415CF8E7FAB
:102EE0008093330656CFF110CDCD7DCC1F93CF9379
:102EF000DF93142F20E030E040EA51E40E94BB3819
:102F00000E9442360E94DC36EB012097C9F0809186
:102F1000DF05811115C011110DC00E94A4172FEFFC
:102F200080E792E0215080409040E1F700C000002F
:102F30002197EBCF0E94CA128091E00581FFEFCF6D
:102F4000DF91CF911F9108951F93CF93DF930E943C
:102F5000CA128091E005882309F453C00E945D07DE
:102F6000009771F580914C0690914B06892BD82FD4
:102F7000D07311E0C82FC07C8091E005882309F44C
:102F800040C09091DF0591113CC080FF16C0909128
:102F9000DE05292F207C09F47BC082FD1AC0109227
:102FA000EA0580E00E94D10380E00E94240A80911B
:102FB000E0058D7F84608093E0050E94CA12DCCF1B
:102FC000FC0191899073439902C080E0CFCF80E4E7
:102FD000CDCF9038E9F48FEC92E00E942A0588E387
:102FE00092E00E942A050E94990680E00E94D10387
:102FF00080E00E94240A0E9442128091DF0588230B
:1030000021F0DF91CF911F9108950E94CA12F5CF50
:10301000903419F48F7D8093E0058091E00583FF63
:10302000CCCF90914C06992359F081FD09C0809135
:10303000320681FF22C08091E20588608093E2051C
:1030400080914B06882371F08091E00581FD0AC0D4
:103050008C2F0E94240A41E06DEC7CEC8CEC9DE30B
:103060000E9476178091E00581FDA7CF8061809353
:10307000E00582E00E94EB02A0CF8D2F0E94D103D9
:1030800041E06DEC7CEC8CEC9DE30E947617D8CF90
:103090008091EA058823A1F181FF0AC080914C0646
:1030A000882339F180E00E94D1031093EA0585CF8F
:1030B0008C7009F482CF80914C06882399F08FECB4
:1030C00092E00E942A0581E492E00E942A050E9473
:1030D00099068091320681FF0FC08091E2058860D9
:1030E0008093E2058091EA0583FF03C082E00E949D
:1030F000EB021092EA0561CF8D2F0E94D103F2CF2F
:103100008091E20583FF59CF8D2F0E94D1038091DA
:10311000E205877F8093E20550CF0E946D070E94F1
:10312000A4178091DF05811108C00E945D07892BDB
:10313000B1F78091DE05883091F30895CF93DF9346
:1031400091E5899FE0011124DD5F40E550E0BE017B
:103150008FEB96E00E94E209892B79F41092BF066A
:103160000E948D1840E550E06FEB76E0CE010E94A2
:10317000920980E0DF91CF91089581E0FBCF0E941A
:103180008D181092EC050895CF939091DE05923042
:1031900039F0C82F0E948D188C2FCF910C94D10339
:1031A000CF9108950F931F93CF93C82F8B010E9447
:1031B0008D182DE0C29FC00111244CE050E0B801F1
:1031C0009E5FCF911F910F910C9492091F93CF9303
:1031D000DF93182FEB018DE0189FB00111247E5F63
:1031E0004CE050E0CE010E94E209892B71F48CE0A2
:1031F000FE0111928A95E9F7BE01812F0E94D21833
:1032000080E0DF91CF911F91089581E0FACFEF9296
:10321000FF920F931F93CF93DF93CDB7DEB72C9719
:103220000FB6F894DEBF0FBECDBF182F80FF0BC0C6
:1032300086E5E7EDF1E0ADEEB5E005900D928A95FB
:10324000E1F70E94CD0911FF10C0CE0101967C016B
:103250008CE0F70111928A95E9F700E0B701802F21
:103260000E94D2180F5F0830C9F712FF14C060E047
:1032700080E093E00E94720960E081E093E00E94A8
:10328000720960E081E593E00E94720960E082E5E6
:1032900093E00E94720913FF0AC060E08EEA93E097
:1032A0000E94720960E08FEA93E00E9472092C96F6
:1032B0000FB6F894DEBF0FBECDBFDF91CF911F9147
:1032C0000F91FF90EF9008952F923F924F925F924F
:1032D0006F927F928F929F92AF92BF92CF92DF9226
:1032E000EF92FF920F931F93CF93DF93CDB7DEB78B
:1032F000C254D1090FB6F894DEBF0FBECDBF3B015B
:1033000000911405202E312C2EE2029FA0011124E1
:10331000BA016C5C7D4F7AAF69AFFB0111922A95BF
:10332000E9F7F3012085FB01218B21FFF0C02CE0A0
:10333000E4ECF5E0DE01599601900D922A95E1F753
:1033400089AB9AAB2DEE35E021963FAF2EAF21979A
:10335000BE01635F7F4F7EAF6DAFCE0149969CAFDC
:103360008BAFE9ADFAADF8AFEFAB9E012B5D3F4FF0
:103370003CAB2BAB3EAB2DAB10E08EE2829D20012F
:10338000839D500C1124B2016C5C7D4F2B01CB014D
:103390000C9623969FAF8EAF239790E1490E511C58
:1033A000E9A9FAA96191719181919191FAABE9AB87
:1033B0002196EEADFFAD219781909190A190B190B3
:1033C0002196FFAFEEAF2197A50194010E94BB3873
:1033D0000E948838EDADFEAD619371938193919316
:1033E000FEAFEDAFEBADFCADC190D190E190F190AF
:1033F000FCAFEBAF6C197D098E099F099B01AC01F5
:1034000097FF07C022273327A901261B370B480B3C
:10341000590BEFA9F8AD2193319341935193F8AF34
:10342000EFAB2396EEADFFAD2397C080D180E28055
:10343000F380C216D306E406F50610F469017A019A
:103440002396EEADFFAD2397C082D182E282F38254
:103450000E940D37A50194010E946336EDA9FEA9D3
:103460006193719381939193FEABEDAB20E030E0DB
:10347000A9010E94593687FF0BC090E2112321F069
:1034800090E8113009F490E4F2018081892B808367
:103490001F5F133009F084CF80E0CD28CE28CF28DD
:1034A00009F4CBC0CE0185960E94410A4B015C0114
:1034B0002EE2229DC001239D900D11249C012C5CC5
:1034C0003D4F7901F901868E978EA0A2B1A2BE016F
:1034D0006B5D7F4F85E096E00E94E008F701628F08
:1034E000738F848F958FBE016B5D7F4F89EF95E061
:1034F0000E94E008F70166A377A380A791A711892E
:1035000010FF09C062A773A784A795A710C02CE07D
:10351000E1E0F1E00FCFF30120813181428153815D
:1035200013FDA5C0F70122A733A744A755A7809193
:103530003302081711F011FFA0C08EE2829DF00146
:10354000839DF00D1124EC5CFD4F128A138A148ABE
:10355000158A12A213A214A215A28EE2829D8001E6
:10356000839D100D11240C5C1D4FF801818981FD94
:1035700063C089AD9AAD0E94EA066B017C01809020
:10358000190190901A01A0901B01B0901C01AC0190
:103590009B01C501B4010E94593687FF36C1A501C0
:1035A0009401C501B4010E94BB38F801668B778B8A
:1035B000808F918F8EE2829D8001839D100D11245A
:1035C0000C5C1D4FF80182A093A0A4A0B5A0A5019A
:1035D000940166897789808D918D0E947B381816B9
:1035E0002CF4F801868A978AA08EB18EC0921901B8
:1035F000D0921A01E0921B01F0921C018CE0FE01B6
:10360000B596ADE0B1E001900D928A95E1F78CE0BE
:10361000FE013D96A1E0B1E001900D928A95E1F79F
:1036200080910001809314058F5F803109F480E060
:10363000809300010E94750781E0CE5BDF4F0FB6DB
:10364000F894DEBF0FBECDBFDF91CF911F910F91D8
:10365000FF90EF90DF90CF90BF90AF909F908F90B2
:103660007F906F905F904F903F902F900895C5018D
:10367000B4010E94BB38F70145CF2DE031E03AABF1
:1036800029AB8E010F5F1F4F6BA97CA9645F7F4F31
:103690007CAF6BAFC12CD12C76010DAB1FABE9A970
:1036A000FAA981909190A190B190FAABE9ABEBA906
:1036B000FCA94190519061907190FCABEBABA301E0
:1036C0009201C501B4010E94BB389B01AC01C70146
:1036D000B6010E9463356B017C01A5019401C30111
:1036E000B2010E946335F8016193719381939193C4
:1036F0008F012BAD3CAD6BA97CA92617370779F656
:103700002FEE3FEF4FE75FE3C701B6010E947B3822
:1037100018164CF48EE2829DF001839DF00D112469
:10372000EC5CFD4F16CF2FEE3FEF4FE75FEBC7018D
:10373000B6010E94593687FF11C08EE2829DF001CA
:10374000839DF00D1124EC5CFD4F89E996E7A6E915
:10375000BEE782A393A3A4A3B5A3FFCE8DA99FA97F
:103760000E94410A6DA97FA985E096E00E94E008C9
:103770004B015C01A701960160E070E080E89FE3E7
:103780000E94633520E030E040E05FE30E94BB38F8
:103790000E945A396B017C01209122063091230648
:1037A0004091240650912506C501B4010E94BB3802
:1037B000A70196010E94BB384B015C01A70196014D
:1037C00060E070E080E89FE30E9463359B01AC01FC
:1037D000C501B4010E9463366B017C0120E030E03A
:1037E000A9010E94593687FF03C0C12CD12C760154
:1037F0008EE2829DF001839DF00D1124EC5CFD4F63
:10380000C2A2D3A2E4A2F5A2A8CEA7019601C70145
:10381000B601C9CEFF920F931F93CF93DF938C0114
:10382000EB018091320685FF23C0F090DE0580E237
:10383000F81611F1C8010E94F4028823C9F081E052
:103840008093E10588E0F8120CC00E94EB020E9410
:10385000A4178091DF0581110BC08091DE058111D5
:10386000F6CF0E94A91282E00E94DB020E94A417F8
:103870008091DE05823021F10E94A4178091DF053E
:1038800081111EC09091330280910001981303C0F2
:103890000E946D07F1CFBE01C8010E946419811119
:1038A0000FC08091320681FF0BC0888584FF08C05D
:1038B00080E1DF91CF911F910F91FF900C94C4187C
:1038C000DF91CF911F910F91FF9008952F923F921A
:1038D0004F925F926F927F928F929F92AF92BF9220
:1038E000CF92DF92EF92FF920F931F93CF93DF93CC
:1038F000CDB7DEB7CC54D1090FB6F894DEBF0FBEFA
:10390000CDBFE4E8F6E08BE3DF011D928A95E9F78D
:103910008CE0E3E4F6E0A5E8B6E001900D928A952C
:10392000E1F78091BF068432A1F01A8E1BA2312CE0
:10393000212C1EA61DA610E01B8E1F8EEE24E394E4
:10394000F12C4AE0A42EB12C51E6852E53E0952EA1
:103950004EC181E0809385061092860683E08A8FAF
:10396000B1E0BBA3E4CF9FEB9D0D9A3110F00C9416
:103970000F2A8F5F8A8FBE016A5E7F4FCE014A9603
:103980000E940B02882311F40C94122A4E885F883F
:10399000688C798CC301B2010E949E390E94DC368A
:1039A000062F70E090E080E00E940D379B01AC0193
:1039B000C301B2010E94633520E030E048EC52E4DC
:1039C0000E94BB380E9428390E94DC36CB01E7E414
:1039D000DE1629F1FDE4DF1609F465C1EAEBED0D11
:1039E000E53108F02CC00E2E000CFF0BE650F34E14
:1039F0000C94063A9C1E1F1DC91ED61EE11EEC1E0D
:103A0000F71E1F1DFB1E1F1D091F1F1D131F1D1F3E
:103A1000271F1F1D1F1D1F1D371F441F511F083249
:103A200009F4DDC030F5043160F4013108F098C0CC
:103A3000043009F474C0B0F00A3009F468C084E1BD
:103A400096C00C3109F463C040F40631C0F725E19B
:103A5000201B2093870626E087C00E3109F457C04B
:103A6000063269F74F8D41110C94152AA2E0AF8FF1
:103A700028C00D3309F4AEC0E0F4053309F44FC09B
:103A800088F40B3211F00133D1F6BF8DB1110C94D3
:103A9000152A013309F095C010928A06E3E0EF8FF2
:103AA00028E04FC00C3358F6065300938B0629E0EC
:103AB0005BC00C3508F50A3508F073C0003509F015
:103AC000BECF0093850621E0063209F04DC0843157
:103AD000910551F08E31910539F08832910521F030
:103AE0008233910509F0ABCFB5010E94D0396657FA
:103AF0006093850621E025C00C3549F00F3508F0AC
:103B00009ECF2EE5201B2093860625E02DC0009732
:103B100031F42F8D21110C94152A31E03F8F009341
:103B20008406202F2D7F2C3119F020E00C35E1F494
:103B3000009719F00A9709F082CF600F609384060E
:103B400020E0C70102C0880F991F2A95E2F72DA532
:103B50003EA528233923232B09F443C085E107C060
:103B600001510093890622E0892B59F387E1C45B58
:103B7000DF4F0FB6F894DEBF0FBECDBFDF91CF9100
:103B80001F910F91FF90EF90DF90CF90BF90AF907B
:103B90009F908F907F906F905F904F903F902F906D
:103BA0000895892B29F40A550093880623E0C9CF8C
:103BB0006A30710509F043CF0A3509F440CF24E09B
:103BC000C0CF0A9709F03BCFF1E0F0938A0623E0DB
:103BD0002F8F66CF892B09F032CF2AE0B2CF27E0B2
:103BE000C3CFADA5BEA5A82BB92BBEA7ADA78A8D07
:103BF000E82FF0E0E154F94FD080D110B4CEBB8D66
:103C0000BB2329F0EF8DE11102C0F2E0FF8F25FE0A
:103C10000FC08091A2069091A306A091A406B09136
:103C2000A50681389649A849B10514F00C94212ABB
:103C30003BA1332309F442C120FE52C18091870683
:103C40008130B1F423E333E34BEC51E4609191060E
:103C50007091920680919306909194060E94BB38D1
:103C600060939106709392068093930690939406C6
:103C700030FC10C080914F0690915006A0915106E3
:103C8000B09152068093AE069093AF06A093B00613
:103C9000B093B10680918406843009F03CC126FCC3
:103CA00038C18CE164CF892B09F060CF063050F425
:103CB000033098F00430D9F080E10530C9F4109257
:103CC0008E0618C0083008F4BACE0A3048F10E311A
:103CD00009F0B5CE00938C0604C0002321F001301A
:103CE000C9F78BE008C0B3E0B0938C06FACF80E24E
:103CF00080938E068CE0F70102C0EE0FFF1F8A95BD
:103D0000E2F7CF012DA53EA52E233923232B09F061
:103D100025CF2DA53EA52E2B392B3EA72DA767CF4E
:103D2000093039F080918D06806480938D068DE096
:103D3000E2CF10928D06FBCF4092910650929206F0
:103D4000609293067092940680E06701082E02C08C
:103D5000CC0CDD1C0A94E2F7960122213321232B9F
:103D600011F00C941B2AD40102C0B595A7958A9531
:103D7000E2F7A0FF0BC020E030E0A901C301B201CF
:103D80000E94593687FF02C00C941E2A2C283D2819
:103D90002ECF002321F0013031F08DE0D6CF31E07D
:103DA00030938F06FACF10928F06F7CF4092950688
:103DB000509296066092970670929806116081E084
:103DC000C4CF4092990650929A0660929B067092D8
:103DD0009C06126082E0B9CF40929D0650929E06EA
:103DE00060929F067092A006146083E0AECF0093AD
:103DF000A10684E0AACFC301B2010E94D536609328
:103E0000A2067093A3068093A4069093A50685E06E
:103E10009CCF4092A6065092A7066092A806709288
:103E2000A90686E092CF4092AA065092AB06609215
:103E3000AC067092AD0687E088CF4092AE065092F5
:103E4000AF066092B0067092B10688E07ECF20E0A7
:103E500030E04FE753E4C301B2010E947B381816EB
:103E600014F40C94182A0093B20689E06ECF4092A5
:103E7000B3065092B4066092B5067092B6064B8DAA
:103E800041604B8F8AE061CF4092B7065092B806EE
:103E90006092B9067092BA068B8D82608B8F8BE030
:103EA00054CF4092BB065092BC066092BD06709201
:103EB000BE069B8D94609B8F8CE047CF80918606D9
:103EC000813081F44F8D423009F0D2CE8091850649
:103ED000803509F4CDCE882309F4CACE20FCC8CEA3
:103EE00086E145CE809144068111C2CE20FCA6CE4B
:103EF0008091530690915406A0915506B0915606B4
:103F00008093910690939206A0939306B0939406A3
:103F1000AFCEE89426F880918906882359F0813045
:103F200009F4BBC022961FAE2297A2E0ABAFB1E06E
:103F3000B9AF07C082E022968FAF229791E09BAF86
:103F400019AE80918706813071F524E8C22E26E0F3
:103F5000D22EF12CE12C2B8DA22EB12CC5010E2CD2
:103F600002C0959587950A94E2F780FF12C023E37B
:103F700033E34BEC51E4D6019F966D917D918D9189
:103F80009C91D2970E94BB38F60167A770AB81ABBA
:103F900092ABFFEFEF1AFF0A24E0C20ED11C33E010
:103FA000E316F104D9F64F8D433049F480918A0627
:103FB000813029F48B8D843011F00C94242A8CE00C
:103FC000E8E6F6E0DE01119601900D928A95E1F7A0
:103FD000ADA5BEA5B1FD69C0009184060A3009F403
:103FE00078C00C3509F419C19F8D933009F43FC096
:103FF000AB8DAA23E1F1B0918806BFA38091800622
:1040000090918106A0918206B091830689A79AA714
:10401000ABA7BCA7E3E4AE2EE6E0BE2EF4E8CF2EBD
:10402000F6E0DF2EF12CE12C9B8D892E912CC40122
:104030000E2C02C0959587950A94E2F780FD5DC12C
:10404000F501818D928DA38DB48DF60187A790AB7C
:10405000A1ABB2ABFFEFEF1AFF0A24E0A20EB11C36
:1040600034E0C30ED11C43E0E416F10401F70E3135
:1040700009F494C1053309F4B8C165E976E086E036
:104080000C3109F02DC10E94E618882301F18B8DB7
:10409000811188C119A61F8EA9C0E1E02296EFAF59
:1040A00022971BAEF2E0F9AF4CCF80918B068730A0
:1040B00010F08DE15CCD90914906891709F48CCF01
:1040C000BE016F5F7F4F0E94E618811185CF87E0A8
:1040D0004ECDBB8DB11102C08AE149CDC1018075C1
:1040E0009927892B09F4DDCD6091A6067091A7066A
:1040F0008091A8069091A9060E949E390E94DC3604
:104100006730B8F68091A106843129F0823009F039
:1041100096CC27FC94CC662309F474C0615069A73F
:1041200065E976E089A50E94E618882381F200916E
:10413000A1064090800650908106609082067090A3
:10414000830694E8C92E96E0D92EF12CE12C3B8D04
:10415000232F30E038A72FA38FA198A50E2C02C0E3
:10416000959587950A94E2F780FF33C0D6019F9614
:104170008D909D90AD90BC90D297043109F046C0CF
:10418000F701EE0FFF1FEE0FFF1FED5BF94F21A9A7
:1041900032A943A954A9618D728D838D948D0E949B
:1041A0006335A50194010E946335F601618B728B22
:1041B000838B948BF2E0EF120CC0A30192010E945A
:1041C000633560939D0670939E0680939F0690933F
:1041D000A006BFEFEB1AFB0AE4E0CE0ED11CF3E021
:1041E000EF16F10409F0B8CF2FEA2222809185065C
:1041F0008FA3803509F000C19B8D992309F406C176
:104200008FE1B5CCE0918B06E9A78ACF51968D92CC
:104210009D92AD92BC925497DCCF3B8D332309F431
:104220005BCF40908006509081066090820670902F
:104230008306A3E48A2EA6E09A2ECE0101967C0185
:10424000B4E8AB2EB6E0BB2ED12CC12CA32FB0E02E
:10425000B8A7AFA38FA198A50C2C02C09595879500
:104260000A94E2F780FF3EC0F7012081318142814C
:104270005381D40159966D917D918D919C915C975C
:104280000E946335F50127A530A941A952A90E94D2
:104290006335D5019F966D937D938D939C93D297B3
:1042A000B2E0CB120CC0A30192010E94633560936F
:1042B000BB067093BC068093BD069093BE06FFEFCD
:1042C000CF1ADF0A24E0820E911C34E0E30EF11CC9
:1042D00044E0A40EB11C83E0C816D10409F0BACFA3
:1042E00019A684CFF40181A992A9A3A9B4A9F501C3
:1042F00087A790ABA1ABB2ABE2CF053309F4AACE4E
:10430000D6019F964D905D906D907C90D297BFA105
:10431000B11133C0F701EE0FFF1FEE0FFF1F21E0B9
:1043200030E02C0F3D1FE20FF31FD501D1962D91E8
:104330003D914D915C91D49760817181828193818F
:104340000E946435A30192010E946435F60167A7BB
:1043500070AB81AB92ABF2E0EF127CCE29A53AA50F
:104360004BA55CA50E9464356093BB067093BC06A8
:104370008093BD069093BE066DCEA3019201D50138
:1043800059966D917D918D919C915C970E946435B9
:10439000F60167A770AB81AB92AB5CCE65E976E0C6
:1043A00087E071CEA3E4B6E0E4E8F6E090E080E0D8
:1043B0004B8D242F30E0A901082E02C0559547955A
:1043C0000A94E2F740FD0AC059964D915D916D91B6
:1043D0007C915C97418B528B638B748B0196149606
:1043E00034968330910539F77BCF809185068230F2
:1043F00008F476CF8EE1BBCBAF8DA23039F4BFA1EC
:10440000B11176C0EB8DEE2309F490C02BA1217081
:10441000EBA1C101E0FFD0C28E7DFF8DF111937E33
:10442000009729F09F7D892B11F00C942D2A8E0185
:10443000035F1F4F89E0D8011D928A95E9F7222377
:1044400009F4BDC28DA59EA5867B892B11F00C9425
:10445000302A80918406853319F081110C94302A1A
:1044600080914F0690915006A0915106B09152064E
:10447000898B9A8BAB8BBC8B80914C0690914B06B1
:10448000892B40919106509192066091930670910C
:1044900094064D875E876F87788B84608D8B8091C3
:1044A000320685FF06C083EB96E00E94F40281117C
:1044B000DAC7B80183EB96E00E940A1C8091DE0502
:1044C00081110BC00E945D07892B39F080E2809337
:1044D000DE050E94AD0A0E94B6038CE0E3EBF6E035
:1044E000ACE5B6E001900D928A95E1F780E03FCB14
:1044F00020E030E0A90160919106709192068091D0
:104500009306909194060E945936882309F4E8CCCA
:10451000FFA1FC38B9F060F4F23059F1F33061F1E9
:10452000F13009F073CF3B8D311170CF1F8E6ECFFC
:104530002FA12E3839F018F02F3809F067CF9BA142
:1045400090619BA38FA18E58823018F4ABA1A86014
:10455000ABA3BB8DBB2309F4BFCD4CE050E063EBB4
:1045600076E08CE596E00E94263A892B09F04ECF42
:104570006BC04BA144604BA38B8D882309F4ACCD59
:10458000B9ADAB2FB0E0BEABADABFBADEF2FF0E004
:10459000FEAFEDAF81E090E07C0109AC02C0EE0C13
:1045A000FF1C0A94E2F70BAC02C0880F991F0A9413
:1045B000E2F7E82AF92A2B8D822F90E08E219F21A5
:1045C000892B09F444C7CD01880F991F880F991FC3
:1045D000FC01EC57F94F8D5B994FDC0159962D91F9
:1045E0003D914D915C915C9767A570A981A992A9B5
:1045F0000E9463352B013C018DAD9EAD880F991F44
:10460000880F991FFC01EC57F94F8D5B994FDC0126
:1046100059962D913D914D915C915C9767A570A93C
:1046200081A992A90E9463354B015C0127FEF6C067
:10463000E89427F84CE050E063EB76E08CE596E0F8
:104640000E94263A892B11F481E291CA6091AA0650
:104650007091AB068091AC069091AD0620918706D3
:10466000213071F423E333E34BEC51E40E94BB3877
:104670006093AA067093AB068093AC069093AD0648
:104680008091AA069091AB06A091AC06B091AD06C0
:1046900089AB9AABABABBCABA3019201C301B20136
:1046A0000E94BB3829966CAF7DAF8EAF9FAF299724
:1046B000A5019401C501B4010E94BB382D966CAFD1
:1046C0007DAF8EAF9FAF2D9720E030E040E850E403
:1046D00069A97AA98BA99CA90E94BB3829A93AA9E2
:1046E0004BA95CA90E94BB3829962CAD3DAD4EADBF
:1046F0005FAD29970E9463352D962CAD3DAD4EAD33
:104700005FAD2D970E9463356B017C0120E030E0A6
:10471000A9010E94593687FD9DC6C701B6010E94B6
:104720005A396B017C012D962CAD3DAD4EAD5FAD80
:104730002D9729966CAD7DAD8EAD9FAD29970E94CA
:1047400064350E945A399B01AC01C701B6019058EB
:104750000E9463366B017C019FA1933021F4F7FA2C
:10476000F094F7F8F09420E030E0A90169A97AA963
:104770008BA99CA90E94593687FF11C0F7FAF094C3
:10478000F7F8F09489A99AA9ABA9BCA9B05880936D
:10479000AA069093AB06A093AC06B093AD060DA904
:1047A0001EA9000F111F000F111F0857194FA70155
:1047B0009601C501B4010E94BB389B01AC01C30145
:1047C000B2010E94633520E030E040E05FE30E94E8
:1047D000BB38D8011D966D937D938D939C93509714
:1047E0000DAD1EAD000F111F000F111F0857194FFF
:1047F000A7019601C301B2010E94BB38A501940133
:104800000E94643520E030E040E05FE30E94BB3866
:10481000F801658776878787908BF8CDC12ED12CDC
:10482000E122FD2083E2EF2809F4A1C9F1EF2F2254
:1048300080918706813041F504E816E0F12CE12CE7
:10484000C6010E2C02C0959587950A94E2F780FF69
:1048500012C023E333E34BEC51E4D80151966D9140
:104860007D918D919C9154970E94BB38F801618B8A
:10487000728B838B948BFFEFEF1AFF0A0C5F1F4F35
:1048800023E0E216F104E1F6EDA9FEA9EE0FFF1F09
:10489000EE0FFF1FE857F94FC584D684E784F088F0
:1048A000A7019601C301B2010E9463352B013C01AF
:1048B000EDADFEADEE0FFF1FEE0FFF1FE857F94FF6
:1048C00085859685A785B08989AB9AABABABBCAB28
:1048D0009C01AD01C501B4010E9463354B015C012F
:1048E000A3019201C301B2010E94BB382B013C011C
:1048F000A5019401C501B4010E94BB389B01AC0124
:10490000C301B2010E9464350E945A394B015C0117
:10491000A7019601C701B6010E94BB386B017C015B
:1049200029A93AA94BA95CA9CA01B9010E94BB38BF
:104930009B01AC01C701B6010E9464350E945A393F
:104940006B017C01C092AA06D092AB06E092AC0645
:10495000F092AD06AC019B01C501B4010E94633524
:104960004B015C01E894B7F82AE037ED43E25CE3E1
:10497000C501B4010E947B3818160CF047CD20E029
:1049800030E040E05FE3C501B4010E947B381816B7
:104990000CF45ACE2FE632E143E05BE3C701B601E7
:1049A0000E94BB389B01AC01C501B4010E947B3859
:1049B00018160CF02BCD48CE8E7D9C7F2ECD80918D
:1049C0003206F0904C0681FF12C08FA181508330D7
:1049D00018F0BBA1B064BBA3EB8DEE2309F459C161
:1049E000FF8DF23009F055C12BA120682BA38091D7
:1049F000A2069091A306A091A406B091A50680936B
:104A0000580690935906A0935A06B0935B0680917E
:104A1000860680934406882311F088E08D8B809170
:104A2000910690919206A0919306B091940680937E
:104A3000530690935406A0935506B09356068D875F
:104A40009E87AF87B88B2091AE063091AF0640911C
:104A5000B0065091B10660914F067091500680915A
:104A60005106909152060E945936811103C09BA1B4
:104A700095FF15C0FF2019F08F2D0E94C41880915A
:104A8000AE069091AF06A091B006B091B1068093AA
:104A90004F0690935006A0935106B0935206ABA1D7
:104AA000A6FD0CC080914F0690915006A091510632
:104AB000B0915206898B9A8BAB8BBC8B8091B206DE
:104AC0008093570680918E0690914C06981731F08E
:104AD0000E94C41880918E0680934C068D89909117
:104AE0004C06892B8D8B90914D0680918F069817DF
:104AF00061F00E948D1880918F068111E1C00E94A3
:104B0000B80280918F0680934D06F0908D068091BB
:104B10004B068F1569F08091DE05823029F00E94E6
:104B20008D188F2D0E94240A80918D0680934B064C
:104B30008D8990914B06892B8D8B809184068430D2
:104B400049F58091DE05823029F18090A60690908B
:104B5000A706A090A806B090A9060E948D186091A3
:104B6000E8057091E90590E080E00E940B376B0149
:104B70007C012AE037ED43E25CE3C501B4010E9409
:104B8000BB389B01AC01C701B6010E94BB3840E0B5
:104B90000E94761780918906809347068091870648
:104BA00080934506BF8DB33071F580918A0680935E
:104BB0004806811108C01092BB061092BC061092E4
:104BC000BD061092BE06C090BB06D090BC06E09019
:104BD000BD06F090BE06A701960160918006709117
:104BE000810680918206909183060E94593688231F
:104BF00051F0C0928006D0928106E0928206F09237
:104C000083060E94BF1880918B06909149069817E1
:104C100069F0809349068CE0FE013196A8E6B6E083
:104C200001900D928A95E1F70E94BF188091880645
:104C30008093460680918406863209F488C008F085
:104C400049C08C3109F469C08E3109F466C08A30DC
:104C500009F44DC08091850680934306803509F4A0
:104C600053C3BF8DB23009F04FC3813009F083C008
:104C7000BE01635F7F4F83EB96E00E940A1C8CE0CD
:104C8000E3EBF6E0ACE5B6E001900D928A95E1F732
:104C90003BC330E1F312ABCE9BA1907480914306ED
:104CA0008150833038F4992309F4A1CE4BA140629E
:104CB0004BA39DCE91119BCE8BA180628BA397CEEF
:104CC00081E08093DD050E94EF0190E080E00E948A
:104CD000A70117CF8C3509F440C0863609F443C0CC
:104CE000883209F0B7CF6CE576E087E033C065E93C
:104CF00076E089A50E94D21880914906E9A5E813BB
:104D0000A9CF8CE0E5E9F6E0A8E6B6E001900D92C7
:104D10008A95E1F70E94BF189DCF8D8981608D8BA8
:104D2000FF8DFF2329F0B80183EB96E00E940A1C57
:104D3000B80185E996E00E940A1C8CE0E5E9F6E0FE
:104D4000ACE5B6E001900D928A95E1F783CF6CE572
:104D500076E086E00E94D2187DCF8CE0E3EBF6E0AF
:104D6000A4E7B6E0D3CFE4E7F6E08CE0DF011D92E4
:104D70008A95E9F7CFCF811105C08D8981608D8B30
:104D8000B80179CF8250823008F097C28091AA068C
:104D90009091AB06A091AC06B091AD068F8F98A311
:104DA000A9A3BAA3A9AD94E0A99F70011124F701AA
:104DB000E45AF94FF8A7EFA397012B56394F3AA7BA
:104DC00029A7D9014D905D906D907C902081318113
:104DD00042815381C301B2010E9464356DA77EA751
:104DE0008FA798ABEBADB4E0EB9F80011124980145
:104DF000245A394F3AAF29AFC8018B56994F9CAF0F
:104E00008BAFDC018D909D90AD90BC90F90120811D
:104E1000318142815381C501B4010E94643569AB7F
:104E20007AAB8BAB9CAB77FA709477F87094D50122
:104E3000C401B0588B8F9C8FAD8FBE8FF701ED549E
:104E4000F94F2DA53EA54FA558A96081718182819A
:104E500093810E9463356B017C01F801ED54F94F99
:104E600029A93AA94BA95CA96081718182819381AA
:104E70000E9463354B015C01A7019601C301B20199
:104E80000E94BB386DAB7EAB8FAB98AFA501940190
:104E90006B8D7C8D8D8D9E8D0E94BB389B01AC01EE
:104EA0006DA97EA98FA998AD0E9464356DAB7EABCC
:104EB0008FAB98AFA5019401C301B2010E94BB382A
:104EC0004B015C01A70196016B8D7C8D8D8D9E8DB4
:104ED0000E94BB389B01AC01C501B4010E9463353F
:104EE0002DA93EA94FA958AD0E94E3356B017C0165
:104EF0009BA192FF68C12DEB37E346E055EBC7015C
:104F0000B6010E947B3887FD0AC02BED3FE049ECDB
:104F100050E4C701B6010E9463356B017C018090AB
:104F2000260690902706A0902806B09029062F8D7F
:104F300038A149A15AA1CA01B9010E946435A5014D
:104F400094010E946335A50194010E94BB380E9420
:104F50005A394B015C0120E030E040E05FE3C701DB
:104F6000B6010E94BB382F8D38A149A15AA10E94D9
:104F7000BB389F77A50194010E9463360E94483791
:104F80000E94DC367EAB6DABDB01AB2B09F470CE3F
:104F90001D8990E080E00E940B374B015C0113FFFC
:104FA0000EC0AC019B016D857E858F8598890E941E
:104FB000BB386D877E878F87988B177F1D8BA501E8
:104FC0009401C701B6010E9463366BA37CA38DA335
:104FD0009EA32296EFAD2297B4E0EB9FC00111246F
:104FE0008C01045A194F8D54994FD8012D913D9140
:104FF0004D915C91FC0160817181828193810E945D
:105000006335A50194010E94633629966CAF7DAF8C
:105010008EAF9FAF29972BA13CA14DA15EA1CA01E4
:10502000B9010E94BB389B01AC0160E070E080E0F8
:1050300090E40E9463356B017C012BEA3AEA4AE274
:105040005EE36BA17CA18DA19EA10E94BB384B01A8
:105050005C0120E030E040E850E4C701B6010E9466
:1050600064359B01AC01C501B4010E94BB38219697
:105070006CAF7DAF8EAF9FAF219720E030E040E076
:105080005FE3C701B6010E94BB3825966CAF7DAFC8
:105090008EAF9FAF25971F8E22242394312CEDA92C
:1050A000FEA9E215F30509F4E3CDFF8DFC3008F00D
:1050B0009EC0A301920121966CAD7DAD8EAD9FADDA
:1050C00021970E94BB386B017C012B8D3C8D4D8D4F
:1050D0005E8D25966CAD7DAD8EAD9FAD25970E9402
:1050E000BB389B01AC01C701B6010E9464357B014E
:1050F0006C01A301920125966CAD7DAD8EAD9FAD87
:1051000025970E94BB384B015C012B8D3C8D4D8D4A
:105110005E8D21966CAD7DAD8EAD9FAD21970E94C9
:10512000BB389B01AC01C501B4010E9463352B0162
:105130003C012F8D2F5F2F8F470156018B8E9C8E48
:10514000AD8EBE8EA30192016DA57EA58FA598A9F7
:105150000E946435EFA1F8A56083718382839383F5
:105160002B8D3C8D4D8D5E8D69A97AA98BA99CA94B
:105170000E946435A9ADBAAD6D937D938D939C93D8
:10518000139729962CAD3DAD4EAD5FAD2997F80133
:1051900060817181828193810E946435D8016D9311
:1051A0007D938D939C931397BE01635F7F4F8CE536
:1051B00096E00E940A1C8091DF05811160CDBFEF4F
:1051C0002B1A3B0A6CCF2DEB37E346E055E3C701C2
:1051D000B6010E94593618160CF4A1CE2BED3FE013
:1051E00049EC50E4C701B6010E94643596CEB10186
:1051F00090E080E00E940B372BA13CA14DA15EA165
:105200000E94BB386B017C010E945E366B8F7C8FE5
:105210008D8F9E8FC701B6010E944C394B015C01F6
:10522000A9A5BAA5CD90DD90ED90FC90F7FAF09489
:10523000F7F8F094ABADBCAD8D919D910D90BC9104
:10524000A02D8F8F98A3A9A3BAA3A70196016B8D58
:105250007C8D8D8D9E8D0E94BB382B013C012F8D46
:1052600038A149A15AA1C501B4010E94BB389B01D4
:10527000AC01C301B2010E9464352B013C01A701BE
:105280009601C501B4010E94BB386B017C012F8DD2
:1052900038A149A15AA16B8D7C8D8D8D9E8D0E9468
:1052A000BB389B01AC01C701B6010E9463356B8F0F
:1052B0007C8F8D8F9E8F1F8E45CF8D8984608D8BC7
:1052C0008091DE05823009F4DACC0E948D1880913D
:1052D000DF05811119C0FBA1F071FF2E1092E305CB
:1052E0002BA123FB882780F90E94140486B18470C7
:1052F0009091C305891719F184E00E94DB020E9496
:10530000A41780E00E94140480918C0680934A06C2
:10531000882311F40C94B71D0E948D1890914A06B1
:105320008091DE05933009F04DC0823029F088E08D
:105330000E94EB020E94A41710924A06D7C8B80137
:1053400083EB96E00E940A1C81E08093DC0582E0FA
:105350000E94EB020E94A4178091DF058111D4CF37
:105360008091DE058111F6CF8091DC05813031F529
:10537000FF2001F18CE0E4ECF5E0A0EDB5E0019058
:105380000D928A95E1F71092DC0580E00E941404EA
:105390000E94A4170E9476120E94300A0E94C8063A
:1053A0000E949E068091E305882309F468CC0E9440
:1053B0006C09AACF85E00E94DB02E5CF81E08093F3
:1053C000E305E1CF91E090934306109247061092D7
:1053D0004606109244061092490610924C0610920E
:1053E0004B06823089F068E676E080E00E94E6189D
:1053F000882311F40C9467200E94BF1880E00E945B
:10540000D10380E00E94240A8FEC92E00E942A05DA
:1054100086E692E00E942A050E9499068DCF81E0DF
:105420000C94B71D82E00C94B71D88E10C94B71D55
:1054300086E20C94B71D89E10C94B71D84E00C94AE
:10544000B71D8BE10C94B71D85E20C94B71D80E26B
:105450000C94B71D82E20C94B71D84E20C94B71D26
:1054600080E10C94B71D8FE00C94B71DCF93DF93B0
:10547000C0E08C2F0E949E18811114C01092BF06AC
:105480008EE30E94EB030E9407048AE30E94EB0371
:1054900087E00E943C05C13019F4DF91CF91089557
:1054A000C1E0E7CF8091BF068823A9F30E94661C64
:1054B000D82F8EE30E94EB030E9407048AE30E9428
:1054C000EB038D2F0E944805E6CF2F923F924F921B
:1054D0005F926F927F928F929F92AF92BF92CF9284
:1054E000DF92EF92FF920F931F93CF93DF93CDB78D
:1054F000DEB7A2970FB6F894DEBF0FBECDBF909176
:10550000DF05911115C1782E9E01235F3F4F3A8F21
:10551000298F89E0D9011D928A95E9F786E08D8B64
:10552000EDEEF5E0FC8FEB8F7F01275F3F4F6901C8
:1055300010E000E0812C912C5401872D90E09E8F8B
:105540008D8F802F94E0002321F090E1013009F449
:1055500098E0D6019D936D01ED8DFE8D02C0F5950D
:10556000E7958A95E2F7E0FF1BC020E030E040ECD1
:105570005FEBD70194966D917D918D919C9197975A
:105580000E94BB38362E472E582E692EA501940155
:105590000E94593687FD04C0832C942CA52CB62C70
:1055A0000F5F1F4FB4E0EB0EF11C0330110549F6FD
:1055B0002090390630903A0640903B0650903C06C9
:1055C00084E0682E01E064EC75E0CE0101960E9453
:1055D0002F0380913406E82FF0E0FAA3E9A3FE013F
:1055E000319624EC35E038A32F8F6901F12C10E0BF
:1055F00090E080E0B501A40170582D8D3E8D082EFD
:1056000002C0359527950A94E2F720FF26C0F3944F
:10561000D6011D921D921D921C92139729A13AA1A9
:10562000082E02C0359527950A94E2F720FF07C09F
:10563000002339F0408351836283738306C00023C3
:10564000C9F380829182A282B382A6E1B0E0AC0F5E
:10565000BD1FA80FB91F2C91122B01963496B4E0F0
:10566000CB0ED11C8330910541F66F2D70E090E098
:1056700080E00E940B370E945A391093E405A20182
:1056800091010E94BB386D877E878F87988BBE0102
:10569000635F7F4FCE0101960E946419E4E0E093BE
:1056A000E2050E94AD0A0E94B6030023E9F00E94C1
:1056B0003609FE01769630E020E090E06191462FB9
:1056C000412359F0AC01022E02C0559547950A942A
:1056D000E2F740FF02C0609516232F5F3F4F233053
:1056E000310561F71093E4050E94AD0A8091BE0573
:1056F000847309F4B3C01091BE0514FF03C086E0A3
:105700000E94DB0215FF03C087E00E94DB0201114B
:10571000C1C00E943609872119F088E00E94DB028F
:105720008091BF058823E9F00E94A9120E94A41766
:10573000A2960FB6F894DEBF0FBECDBFDF91CF911A
:105740001F910F91FF90EF90DF90CF90BF90AF909F
:105750009F908F907F906F905F904F903F902F9091
:10576000089584E00E94E1020E94761280913D0635
:1057700090913E06019708F076C0E1E00E27C090B8
:105780003F06D0904006E0904106F090420600238C
:1057900009F470C020E030E040EA50E4C701B601EF
:1057A0000E94BB384B015C012090350630903606D4
:1057B00040903706509038066A94611004CF2090CC
:1057C0003406312C2601370177FA709477F87094FB
:1057D00010E000E08D8D9E8D002E02C0959587957E
:1057E0000A94E2F780FF26C0AB8DBC8D8D909D9012
:1057F000AD90BC901397C101002E02C0959587957E
:105800000A94E2F780FF41C094962D913D914D910D
:105810005C919797C701B6010E946435A501940178
:105820000E94BB380E948838EF8DF8A16083718395
:10583000828393830F5F1F4F2F8D38A12C5F3F4FC3
:1058400038A32F8F8B8D9C8D04969C8F8B8F03306C
:10585000110509F0BFCF1092E2056ACF812F8C713C
:1058600009F023CF81CFAFE9BFE01197F1F700C076
:10587000000080CF2090390630903A0640903B06D9
:1058800050903C064601570197CFA5019401C301F2
:10589000B201C6CF12FF44CF89E040CF1F920F92D2
:1058A0000FB60F9211242F933F934F935F936F93F3
:1058B0007F938F939F93AF93BF93EF93FF930E9438
:1058C0006B03882321F080FF13C00E94A912FF916F
:1058D000EF91BF91AF919F918F917F916F915F9168
:1058E0004F913F912F910F900FBE0F901F901895E1
:1058F00082FF06C08091BE0582608093BE05E7CF1F
:1059000081FFE5CF8091BE058860F7CF1F920F928F
:105910000FB60F9211248F939F939BB180910C022D
:105920008C71937E892B8BB915BC9F918F910F90B1
:105930000FBE0F901F9018951F920F920FB60F92E7
:1059400011240F931F932F933F934F935F936F9364
:105950007F938F939F93AF93BF93EF93FF93809128
:105960000E028111EAC19BB180911E02807E9F715F
:10597000892B8BB98BB1837E90911D02892B8BB9BA
:1059800080911C0286BD82E085BD81E080930E027D
:1059900078948091300290913102892B09F0A1C056
:1059A0008091150590913B05981709F4C1C1E091CC
:1059B00015052E2F30E086E0E89FF0011124E95E06
:1059C000FA4FF0933102E0933002828193819093F9
:1059D0008900809388008081918190932C0280932C
:1059E0002B02E48180912D028E1761F1E0932D024C
:1059F00081E1E89FF0011124E45CFA4FF0932F025B
:105A0000E0932E0284859585A685B785B695A795E2
:105A1000979587958093170290931802A093190287
:105A2000B0931A028093130290931402A09315026C
:105A3000B093160280930F0290931002A09311026C
:105A4000B0931202E0912E02F0912F028089909182
:105A50000D02892780931E0286E0829FD001839FDA
:105A6000B00D1124A95EBA4F15962C9180819181B9
:105A7000A281B381022E04C0B695A795979587950C
:105A80000A94D2F780931F0290932002A0932102E0
:105A9000B093220284819581A681B781022E04C031
:105AA000B695A795979587950A94D2F78093230288
:105AB00090932402A0932502B093260280859185BD
:105AC000A285B38504C0B695A795979587952A9525
:105AD000D2F78093270290932802A0932902B093D3
